{
  "_format": "hh-sol-artifact-1",
  "contractName": "SimpleSealedAuction",
  "sourceName": "contracts/SimpleSealedAuction.sol",
  "abi": [
    {
      "inputs": [
        {
          "internalType": "string",
          "name": "_title",
          "type": "string"
        },
        {
          "internalType": "uint256",
          "name": "_durationInMinutes",
          "type": "uint256"
        },
        {
          "internalType": "uint256",
          "name": "_minimumBid",
          "type": "uint256"
        }
      ],
      "stateMutability": "nonpayable",
      "type": "constructor"
    },
    {
      "inputs": [],
      "name": "ZamaProtocolUnsupported",
      "type": "error"
    },
    {
      "anonymous": false,
      "inputs": [
        {
          "indexed": true,
          "internalType": "address",
          "name": "winner",
          "type": "address"
        },
        {
          "indexed": false,
          "internalType": "uint256",
          "name": "timestamp",
          "type": "uint256"
        }
      ],
      "name": "AuctionEnded",
      "type": "event"
    },
    {
      "anonymous": false,
      "inputs": [
        {
          "indexed": true,
          "internalType": "address",
          "name": "bidder",
          "type": "address"
        },
        {
          "indexed": false,
          "internalType": "uint256",
          "name": "timestamp",
          "type": "uint256"
        }
      ],
      "name": "BidPlaced",
      "type": "event"
    },
    {
      "inputs": [],
      "name": "auctionEndTime",
      "outputs": [
        {
          "internalType": "uint256",
          "name": "",
          "type": "uint256"
        }
      ],
      "stateMutability": "view",
      "type": "function"
    },
    {
      "inputs": [],
      "name": "auctionEnded",
      "outputs": [
        {
          "internalType": "bool",
          "name": "",
          "type": "bool"
        }
      ],
      "stateMutability": "view",
      "type": "function"
    },
    {
      "inputs": [],
      "name": "auctionTitle",
      "outputs": [
        {
          "internalType": "string",
          "name": "",
          "type": "string"
        }
      ],
      "stateMutability": "view",
      "type": "function"
    },
    {
      "inputs": [
        {
          "internalType": "uint256",
          "name": "",
          "type": "uint256"
        }
      ],
      "name": "bidders",
      "outputs": [
        {
          "internalType": "address",
          "name": "",
          "type": "address"
        }
      ],
      "stateMutability": "view",
      "type": "function"
    },
    {
      "inputs": [
        {
          "internalType": "address",
          "name": "",
          "type": "address"
        }
      ],
      "name": "bids",
      "outputs": [
        {
          "internalType": "euint32",
          "name": "encryptedAmount",
          "type": "bytes32"
        },
        {
          "internalType": "uint256",
          "name": "escrowAmount",
          "type": "uint256"
        },
        {
          "internalType": "bool",
          "name": "exists",
          "type": "bool"
        }
      ],
      "stateMutability": "view",
      "type": "function"
    },
    {
      "inputs": [],
      "name": "confidentialProtocolId",
      "outputs": [
        {
          "internalType": "uint256",
          "name": "",
          "type": "uint256"
        }
      ],
      "stateMutability": "view",
      "type": "function"
    },
    {
      "inputs": [],
      "name": "encryptedWinnerIndex",
      "outputs": [
        {
          "internalType": "euint32",
          "name": "",
          "type": "bytes32"
        }
      ],
      "stateMutability": "view",
      "type": "function"
    },
    {
      "inputs": [],
      "name": "encryptedWinningBid",
      "outputs": [
        {
          "internalType": "euint32",
          "name": "",
          "type": "bytes32"
        }
      ],
      "stateMutability": "view",
      "type": "function"
    },
    {
      "inputs": [],
      "name": "endAuction",
      "outputs": [],
      "stateMutability": "nonpayable",
      "type": "function"
    },
    {
      "inputs": [],
      "name": "getAuctionInfo",
      "outputs": [
        {
          "internalType": "string",
          "name": "title",
          "type": "string"
        },
        {
          "internalType": "uint256",
          "name": "endTime",
          "type": "uint256"
        },
        {
          "internalType": "uint256",
          "name": "minBid",
          "type": "uint256"
        },
        {
          "internalType": "bool",
          "name": "ended",
          "type": "bool"
        },
        {
          "internalType": "uint256",
          "name": "bidderCount",
          "type": "uint256"
        }
      ],
      "stateMutability": "view",
      "type": "function"
    },
    {
      "inputs": [],
      "name": "getEncryptedWinnerIndex",
      "outputs": [
        {
          "internalType": "euint32",
          "name": "",
          "type": "bytes32"
        }
      ],
      "stateMutability": "view",
      "type": "function"
    },
    {
      "inputs": [],
      "name": "getEncryptedWinningBid",
      "outputs": [
        {
          "internalType": "euint32",
          "name": "",
          "type": "bytes32"
        }
      ],
      "stateMutability": "view",
      "type": "function"
    },
    {
      "inputs": [],
      "name": "getMyBid",
      "outputs": [
        {
          "internalType": "euint32",
          "name": "",
          "type": "bytes32"
        }
      ],
      "stateMutability": "view",
      "type": "function"
    },
    {
      "inputs": [],
      "name": "minimumBid",
      "outputs": [
        {
          "internalType": "uint256",
          "name": "",
          "type": "uint256"
        }
      ],
      "stateMutability": "view",
      "type": "function"
    },
    {
      "inputs": [
        {
          "internalType": "externalEuint32",
          "name": "inputEuint32",
          "type": "bytes32"
        },
        {
          "internalType": "bytes",
          "name": "inputProof",
          "type": "bytes"
        }
      ],
      "name": "placeBid",
      "outputs": [],
      "stateMutability": "payable",
      "type": "function"
    },
    {
      "inputs": [],
      "name": "requestResultAccess",
      "outputs": [],
      "stateMutability": "nonpayable",
      "type": "function"
    },
    {
      "inputs": [],
      "name": "seller",
      "outputs": [
        {
          "internalType": "address",
          "name": "",
          "type": "address"
        }
      ],
      "stateMutability": "view",
      "type": "function"
    },
    {
      "inputs": [],
      "name": "winner",
      "outputs": [
        {
          "internalType": "address",
          "name": "",
          "type": "address"
        }
      ],
      "stateMutability": "view",
      "type": "function"
    }
  ],
  "bytecode": "0x608060405234801561000f575f5ffd5b506040516116ad3803806116ad83398101604081905261002e916102a9565b6100e2610039610126565b80517f9e7b61f58c47dc699ac88507c4f5bb9f121c03808c5676a8078fe583e464970080546001600160a01b03199081166001600160a01b039384161790915560208301517f9e7b61f58c47dc699ac88507c4f5bb9f121c03808c5676a8078fe583e46497018054831691841691909117905560408301517f9e7b61f58c47dc699ac88507c4f5bb9f121c03808c5676a8078fe583e46497028054909216921691909117905550565b5f6100ed84826103ec565b50600180546001600160a01b03191633179055600381905561011082603c6104ba565b61011a90426104d7565b600255506104ea915050565b604080516060810182525f80825260208201819052918101919091524660010361017f575060408051606080820183525f8083526020808401829052928401819052835191820184528082529181018290529182015290565b4662aa36a7036101fe575060408051606080820183525f8083526020808401829052928401528251908101835273f0ffdc93b7e186bc2f8cb3daa75d86d1930a433d81527392c920834ec8941d2c77d188936e1f7a6f49c1279181019190915273be0e383937d564d7ff0bc3b46c51f0bf8d5c311a9181019190915290565b46617a690361027c575060408051606080820183525f808352602080840182905292840152825190810183527350157cffd6bbfa2dece204a89ec419c23ef5755d815273e3a9105a3a932253a70f126eb1e3b589c643dd249181019190915273be0e383937d564d7ff0bc3b46c51f0bf8d5c311a9181019190915290565b6040516373cac13b60e01b815260040160405180910390fd5b634e487b7160e01b5f52604160045260245ffd5b5f5f5f606084860312156102bb575f5ffd5b83516001600160401b038111156102d0575f5ffd5b8401601f810186136102e0575f5ffd5b80516001600160401b038111156102f9576102f9610295565b604051601f8201601f19908116603f011681016001600160401b038111828210171561032757610327610295565b60405281815282820160200188101561033e575f5ffd5b8160208401602083015e5f6020928201830152908601516040909601519097959650949350505050565b600181811c9082168061037c57607f821691505b60208210810361039a57634e487b7160e01b5f52602260045260245ffd5b50919050565b601f8211156103e757805f5260205f20601f840160051c810160208510156103c55750805b601f840160051c820191505b818110156103e4575f81556001016103d1565b50505b505050565b81516001600160401b0381111561040557610405610295565b610419816104138454610368565b846103a0565b6020601f82116001811461044b575f83156104345750848201515b5f19600385901b1c1916600184901b1784556103e4565b5f84815260208120601f198516915b8281101561047a578785015182556020948501946001909201910161045a565b508482101561049757868401515f19600387901b60f8161c191681555b50505050600190811b01905550565b634e487b7160e01b5f52601160045260245ffd5b80820281158282048414176104d1576104d16104a6565b92915050565b808201808211156104d1576104d16104a6565b6111b6806104f75f395ff3fe608060405260043610610122575f3560e01c8063888436a1116100a1578063d3a8638611610071578063dfbf53ae11610057578063dfbf53ae14610311578063f7741c7714610330578063fe67a54b14610344575f5ffd5b8063d3a86386146102d7578063d94a3505146102ec575f5ffd5b8063888436a11461026f5780638927b03014610283578063a17bf88414610297578063cff29dfd146102b8575f5ffd5b806351572820116100f65780636f447ff4116100dc5780636f447ff41461021d57806384ddc67f146102325780638643337414610246575f5ffd5b806351572820146101ae57806362ea82db146101c3575f5ffd5b8062977f0f1461012657806308551a531461014d5780634b00574d146101845780634b449cba14610199575b5f5ffd5b348015610131575f5ffd5b5061013a610358565b6040519081526020015b60405180910390f35b348015610158575f5ffd5b5060015461016c906001600160a01b031681565b6040516001600160a01b039091168152602001610144565b610197610192366004610fb2565b6103ac565b005b3480156101a4575f5ffd5b5061013a60025481565b3480156101b9575f5ffd5b5061013a60095481565b3480156101ce575f5ffd5b506102006101dd366004611029565b60056020525f908152604090208054600182015460029092015490919060ff1683565b604080519384526020840192909252151590820152606001610144565b348015610228575f5ffd5b5061013a60085481565b34801561023d575f5ffd5b5061013a6105eb565b348015610251575f5ffd5b5060045461025f9060ff1681565b6040519015158152602001610144565b34801561027a575f5ffd5b5061013a61065f565b34801561028e575f5ffd5b5061013a6106ae565b3480156102a2575f5ffd5b506102ab6106bc565b604051610144919061107d565b3480156102c3575f5ffd5b5061016c6102d236600461108f565b610747565b3480156102e2575f5ffd5b5061013a60035481565b3480156102f7575f5ffd5b5061030061076f565b6040516101449594939291906110a6565b34801561031c575f5ffd5b5060075461016c906001600160a01b031681565b34801561033b575f5ffd5b5061019761082c565b34801561034f575f5ffd5b5061019761088e565b6004545f9060ff166103a55760405162461bcd60e51b8152602060048201526011602482015270105d58dd1a5bdb881b9bdd08195b991959607a1b60448201526064015b60405180910390fd5b5060085490565b60025442106103fd5760405162461bcd60e51b815260206004820152601160248201527f41756374696f6e2068617320656e646564000000000000000000000000000000604482015260640161039c565b60035434101561044f5760405162461bcd60e51b815260206004820152601c60248201527f457363726f77206d757374206d656574206d696e696d756d2062696400000000604482015260640161039c565b5f61048f8484848080601f0160208091040260200160405190810160405280939291908181526020018383808284375f92019190915250610aba92505050565b905061049a81610ace565b506104a58133610add565b50335f9081526005602052604090206002015460ff161561050c57335f8181526005602052604080822060018101805491869055349055905190929183156108fc02918491818181858888f19350505050158015610505573d5f5f3e3d5ffd5b50506105b0565b604080516060810182528281523460208083019182526001838501818152335f81815260059094529583209451855592518482015591516002909301805460ff1916931515939093179092556006805491820181559091527ff652222313e28459528d920b65115c16c04f3efc82aaedc97be59f3f377c0d3f0180547fffffffffffffffffffffffff00000000000000000000000000000000000000001690911790555b60405142815233907f3fabff0a9c3ecd6814702e247fa9733e5d0aa69e3a38590f92cb18f623a2254d9060200160405180910390a250505050565b335f9081526005602052604081206002015460ff1661064c5760405162461bcd60e51b815260206004820152600d60248201527f4e6f2062696420706c6163656400000000000000000000000000000000000000604482015260640161039c565b50335f9081526005602052604090205490565b6004545f9060ff166106a75760405162461bcd60e51b8152602060048201526011602482015270105d58dd1a5bdb881b9bdd08195b991959607a1b604482015260640161039c565b5060095490565b5f6106b7610aef565b905090565b5f80546106c8906110dc565b80601f01602080910402602001604051908101604052809291908181526020018280546106f4906110dc565b801561073f5780601f106107165761010080835404028352916020019161073f565b820191905f5260205f20905b81548152906001019060200180831161072257829003601f168201915b505050505081565b60068181548110610756575f80fd5b5f918252602090912001546001600160a01b0316905081565b60605f5f5f5f5f60025460035460045f9054906101000a900460ff1660068054905084805461079d906110dc565b80601f01602080910402602001604051908101604052809291908181526020018280546107c9906110dc565b80156108145780601f106107eb57610100808354040283529160200191610814565b820191905f5260205f20905b8154815290600101906020018083116107f757829003601f168201915b50505050509450945094509450945094509091929394565b60045460ff166108725760405162461bcd60e51b8152602060048201526011602482015270105d58dd1a5bdb881b9bdd08195b991959607a1b604482015260640161039c565b61087e60085433610add565b5061088b60095433610add565b50565b6002544210156108e05760405162461bcd60e51b815260206004820152601460248201527f41756374696f6e207374696c6c20616374697665000000000000000000000000604482015260640161039c565b60045460ff16156109335760405162461bcd60e51b815260206004820152601560248201527f41756374696f6e20616c726561647920656e6465640000000000000000000000604482015260640161039c565b6006546109825760405162461bcd60e51b815260206004820152600e60248201527f4e6f206269647320706c61636564000000000000000000000000000000000000604482015260640161039c565b5f60055f60065f8154811061099957610999611114565b5f9182526020808320909101546001600160a01b0316835282019290925260400181205491506109c881610b23565b905060015b600654811015610a4c575f60055f600684815481106109ee576109ee611114565b5f9182526020808320909101546001600160a01b031683528201929092526040018120549150610a1e8286610b3b565b9050610a2b818387610b69565b9450610a4081610a3a85610b23565b86610b69565b935050506001016109cd565b5060088290556009819055610a6082610ace565b50610a6c600954610ace565b506004805460ff191660011790556040515f907fdaec4582d5d9595688c8c98545fdd1c696d41c6aeaeb636737e84ed2f5c00eda90610aae9042815260200190565b60405180910390a25050565b5f610ac783836004610bb0565b9392505050565b5f610ad98230610cd0565b5090565b5f610ae88383610cd0565b5090919050565b5f46600103610afe5750600190565b4662aa36a703610b0f575061271190565b46617a6903610b1e57505f1990565b505f90565b5f610b358263ffffffff166004610d59565b92915050565b5f82610b4d57610b4a5f610b23565b92505b81610b5e57610b5b5f610b23565b91505b610ac783835f610e0e565b5f83610b7b57610b785f610eee565b93505b82610b8c57610b895f610b23565b92505b81610b9d57610b9a5f610b23565b91505b610ba8848484610f09565b949350505050565b7f9e7b61f58c47dc699ac88507c4f5bb9f121c03808c5676a8078fe583e46497015460405163045fc19560e11b81525f917f9e7b61f58c47dc699ac88507c4f5bb9f121c03808c5676a8078fe583e4649700916001600160a01b03909116906308bf832a90610c29908890339089908990600401611148565b6020604051808303815f875af1158015610c45573d5f5f3e3d5ffd5b505050506040513d601f19601f82011682018060405250810190610c69919061117e565b8154604051630f8e573b60e21b8152600481018390523360248201529193506001600160a01b031690633e395cec906044015f604051808303815f87803b158015610cb2575f5ffd5b505af1158015610cc4573d5f5f3e3d5ffd5b50505050509392505050565b5f7f9e7b61f58c47dc699ac88507c4f5bb9f121c03808c5676a8078fe583e46497008054604051635ca4b5b160e11b8152600481018690526001600160a01b03858116602483015292935091169063b9496b62906044015f604051808303815f87803b158015610d3e575f5ffd5b505af1158015610d50573d5f5f3e3d5ffd5b50505050505050565b7f9e7b61f58c47dc699ac88507c4f5bb9f121c03808c5676a8078fe583e464970154604051639cd07acb60e01b81525f917f9e7b61f58c47dc699ac88507c4f5bb9f121c03808c5676a8078fe583e4649700916001600160a01b0390911690639cd07acb90610dce9087908790600401611195565b6020604051808303815f875af1158015610dea573d5f5f3e3d5ffd5b505050506040513d601f19601f82011682018060405250810190610ba8919061117e565b5f5f8215610e215750600160f81b610e24565b505f5b5f7f9e7b61f58c47dc699ac88507c4f5bb9f121c03808c5676a8078fe583e464970060018101546040516385362ee760e01b815260048101899052602481018890527fff00000000000000000000000000000000000000000000000000000000000000851660448201529192506001600160a01b0316906385362ee7906064016020604051808303815f875af1158015610ec0573d5f5f3e3d5ffd5b505050506040513d601f19601f82011682018060405250810190610ee4919061117e565b9695505050505050565b5f610b3582610efd575f610f00565b60015b60ff165f610d59565b5f807f9e7b61f58c47dc699ac88507c4f5bb9f121c03808c5676a8078fe583e46497006001810154604051637702dcff60e01b81526004810188905260248101879052604481018690529192506001600160a01b031690637702dcff906064016020604051808303815f875af1158015610f85573d5f5f3e3d5ffd5b505050506040513d601f19601f82011682018060405250810190610fa9919061117e565b95945050505050565b5f5f5f60408486031215610fc4575f5ffd5b83359250602084013567ffffffffffffffff811115610fe1575f5ffd5b8401601f81018613610ff1575f5ffd5b803567ffffffffffffffff811115611007575f5ffd5b866020828401011115611018575f5ffd5b939660209190910195509293505050565b5f60208284031215611039575f5ffd5b81356001600160a01b0381168114610ac7575f5ffd5b5f81518084528060208401602086015e5f602082860101526020601f19601f83011685010191505092915050565b602081525f610ac7602083018461104f565b5f6020828403121561109f575f5ffd5b5035919050565b60a081525f6110b860a083018861104f565b60208301969096525060408101939093529015156060830152608090910152919050565b600181811c908216806110f057607f821691505b60208210810361110e57634e487b7160e01b5f52602260045260245ffd5b50919050565b634e487b7160e01b5f52603260045260245ffd5b6054811061114457634e487b7160e01b5f52602160045260245ffd5b9052565b8481526001600160a01b0384166020820152608060408201525f61116f608083018561104f565b9050610fa96060830184611128565b5f6020828403121561118e575f5ffd5b5051919050565b82815260408101610ac7602083018461112856fea164736f6c634300081b000a",
  "linkReferences": {},
  "deployedLinkReferences": {}
}